:0A0000000C942A000C9400000C94EC
:10000A0000000C9400000C9400000C9400000C9466
:10001A0000000C9400000C9400000C9400000C9456
:10002A0000000C9400000C9400000C9400000C9446
:10003A0000000C9400000C9400000C9400000C9436
:10004A0000000C9400000C940000F894EE27ECBB1E
:10005A00F1E0FBBFEBBFE5BF8DE0A2E0BB27ED936C
:10006A008A95E9F780E098E0A0E6ED930197E9F731
:10007A00EFE5EDBFE8E0EEBFC0E6D2E00C94450044
:10008A00E0E0EABBEFEFEBBBE0E0E7BBE8BBE3E0B5
:10009A00E4BBE0E0E5BBE1BBE2BBE0E3E9BBCD9951
:1000AA0007C0CC9902C0E3E001C0E1E0E5BB06C0AD
:1000BA00CC9902C0E2E001C0E0E0E5BBEECFFFCFA1
:00000001FF
